:100000000C945D000C9485000C9485000C94850084
:100010000C9485000C9485000C9485000C9485004C
:100020000C9485000C9485000C9485000C9485003C
:100030000C9485000C9485000C9485000C9485002C
:100040000C945B040C9485000C9429040C94030418
:100050000C9485000C9485000C9485000C9485000C
:100060000C9485000C94850000000008000201003B
:100070000003040700000000000000000000000072
:10008000250028002B0000000000240027002A0083
:10009000040404040404040402020202020203032E
:1000A0000303030301020408102040800102040836
:1000B0001020010204081020A50411241FBECFEF58
:1000C000D8E0DEBFCDBF11E0A0E0B1E0E0E9FDE0A7
:1000D00002C005900D92A037B107D9F722E0A0E742
:1000E000B1E001C01D92A033B207E1F710E0CDE509
:1000F000D0E004C02197FE010E94C006CC35D10794
:10010000C9F70E94E4040C94C6060C94000090E029
:10011000FC01EC55FF4F249180579F4FFC018491C7
:10012000882399F090E0880F991FFC01EA57FF4F50
:10013000A591B491FC01E458FF4F859194918FB73C
:10014000F894EC91E22BEC938FBF0895AF92BF929D
:10015000CF92DF92EF92FF920F931F93CF93DF9393
:100160006C017B018B01040F151FEB015E01AE18C2
:10017000BF08C017D10759F06991D601ED91FC91E4
:100180000190F081E02DC6010995892B79F7C50111
:10019000DF91CF911F910F91FF90EF90DF90CF9063
:1001A000BF90AF900895FC01538D448D252F30E012
:1001B000842F90E0821B930B541710F0CF96089574
:1001C00001970895FC01918D828D981761F0A28DA1
:1001D000AE0FBF2FB11D5D968C91928D9F5F9F7367
:1001E000928F90E008958FEF9FEF0895FC01918D1D
:1001F000828D981731F0828DE80FF11D858D90E08A
:1002000008958FEF9FEF0895FC01918D228D892F26
:1002100090E0805C9F4F821B91098F73992708950E
:100220008CE891E00E94040121E0892B09F420E090
:10023000822F089580E090E0892B29F00E94100120
:1002400081110C9400000895FC01A48DA80FB92F12
:10025000B11DA35ABF4F2C91848D90E001968F73EE
:100260009927848FA689B7892C93A089B1898C910D
:10027000837080648C93938D848D981306C002885C
:10028000F389E02D80818F7D80830895EF92FF9226
:100290000F931F93CF93DF93EC0181E0888F9B8DA9
:1002A0008C8D98131AC0E889F989808185FF15C063
:1002B0009FB7F894EE89FF896083E889F989808186
:1002C0008370806480839FBF81E090E0DF91CF9155
:1002D0001F910F91FF90EF900895F62E0B8D10E077
:1002E0000F5F1F4F0F731127E02E8C8D8E110CC0E6
:1002F0000FB607FCFACFE889F989808185FFF5CF31
:10030000CE010E942401F1CFEB8DEC0FFD2FF11DEA
:10031000E35AFF4FF0829FB7F8940B8FEA89FB896D
:1003200080818062CFCFCF93DF93EC01888D8823CB
:10033000B9F0AA89BB89E889F9898C9185FD03C048
:10034000808186FD0DC00FB607FCF7CF8C9185FF2D
:10035000F2CF808185FFEDCFCE010E942401E9CF4D
:10036000DF91CF91089590E0FC01E859FF4F24916F
:10037000FC01EC55FF4F3491FC01E057FF4FE49135
:10038000EE23C9F0222339F0233001F1A8F4213003
:1003900019F1223029F1F0E0EE0FFF1FE458FF4F72
:1003A000A591B4918FB7F894EC91611126C0309566
:1003B0003E233C938FBF08952730A9F02830C9F021
:1003C000243049F7809180008F7D03C080918000A8
:1003D0008F7780938000DFCF84B58F7784BDDBCFAC
:1003E00084B58F7DFBCF8091B0008F778093B00074
:1003F000D2CF8091B0008F7DF9CF3E2BDACF61E074
:10040000809129020C94B3013FB7F8948091720156
:1004100090917301A0917401B091750126B5A89BCC
:1004200005C02F3F19F00196A11DB11D3FBFBA2F86
:10043000A92F982F8827BC01CD01620F711D811D46
:10044000911D42E0660F771F881F991F4A95D1F7CB
:1004500008958EBD00000DB407FEFDCF8EB5089542
:10046000CF93CFB7F89480917001811124C0EAE94D
:10047000F0E08491EEEAF0E09491E82FF0E0EE0FE6
:10048000FF1FEA57FF4FA591B491EC91E92321F4A6
:1004900061E08AE00E94B3018AE00E9487008CB587
:1004A00080618CBD8CB580648CBD8DE00E9487001E
:1004B0008BE00E948700809170018F5F80937001B4
:1004C000CFBFCF910895FC0101900020E9F731974B
:1004D000AF01481B590BBC018CE891E00C94A600BD
:1004E000CF93DF930E946302EC0186E291E00E94C9
:1004F00063028C0F9D1FDF91CF9108950F931F937F
:1005000000912A0210912B0220912C0230912D0291
:1005100040E052E16AE770E080E004171507260723
:10052000370740F476956795579547958F5F8630E6
:10053000A1F787E0982F906A9695809581709CBD71
:100540008DBD60E0809129021F910F910C94B30141
:100550001F93CF93DF93182FD62FC42F0E947E02B4
:1005600085E00E942902812F0E9429028D2F0E947E
:1005700029028C2F0E942902DF91CF911F910C94A8
:10058000FF01CF92DF92EF92FF92CF93DF93D82FAC
:10059000482F60EE8FE00E94A8028FB7F894C090B9
:1005A0008801D0908901E0908A01F0908B018FBF83
:1005B0008AE0C80ED11CE11CF11C2FB7F894809181
:1005C000880190918901A0918A01B0918B012FBF80
:1005D0008C159D05AE05BF05E0F40E947E0283E008
:1005E0000E9429028EE00E94290280E00E942902D6
:1005F000C82F0E94FF01C07EDC13DFCF81E091E0B5
:10060000892790E0DF91CF91FF90EF90DF90CF901E
:10061000089580E0F4CFCF93DF93D82FC62F0E94A8
:100620007E0282E00E9429028D2F0E9429028C2FD7
:100630000E942902DF91CF910C94FF01EF92FF926B
:100640000F931F93CF93DF93C82F162FE72E042FFE
:100650000E947E0282E00E9429028C2F0E942902C1
:10066000F12EC12FDE2D89910E9429028C2F8F1926
:100670008017C8F3DF91CF911F910F91FF90EF90FA
:100680000C94FF01FF920F931F93CF93DF93C82F1A
:10069000F62E172F042F0E947E0283E00E9429026B
:1006A0008C2F0E942902CF2DD12F0C0F1D2F111D31
:1006B000C017D10729F080E00E9429028993F8CF62
:1006C000DF91CF911F910F91FF900C94FF01AF929A
:1006D000BF92CF92DF92EF92FF920F931F93CF932F
:1006E000DF9300D000D01F92CDB7DEB78C01000F92
:1006F000111F000F111FF801E45FFE4F45E0BE011E
:100700006F5F7F4F81810E9442038A81C98098E098
:10071000C99E60011124282F30E055E035952795BA
:100720005A95E1F7C20ED31E0D2C000CEE08FF08FF
:1007300083FF20C092E0CC0CDD1CEE1CFF1C9A95C0
:10074000D1F78370C80ED11CE11CF11CFE2CED2CDE
:10075000DC2CCC248B81C80ED11CE11CF11CFE2C9E
:10076000ED2CDC2CCC248C81C80ED11CE11CF11C9E
:100770006894F7F88D818F70B82EE8E081E090E002
:10078000EB1588F1F801E45FFE4FA0800E947E0225
:1007900083E00E9429028A2D0E94290280E00E94A3
:1007A0002902A82E0E94FF01A3FE02C06894F6F859
:1007B000C0927801D0927901E0927A01F0927B01A7
:1007C000B0927C01045F1E4F4B2D60E871E0F80190
:1007D00082810E94420340E0F80163818CE20E9422
:1007E000A80290E080E00F900F900F900F900F9074
:1007F000DF91CF911F910F91FF90EF90DF90CF90FD
:10080000BF90AF9008951F920F920FB60F921124D0
:100810002F933F934F935F936F937F938F939F9308
:10082000AF93BF93EF93FF938CE891E00E94240174
:10083000FF91EF91BF91AF919F918F917F916F91B8
:100840005F914F913F912F910F900FBE0F901F908E
:1008500018951F920F920FB60F9211242F938F931A
:100860009F93EF93FF93E0919C01F0919D01808114
:10087000E091A201F091A30182FD1BC090818091C3
:10088000A5018F5F8F732091A601821741F0E0913F
:10089000A501F0E0E457FE4F958F8093A501FF91ED
:1008A000EF919F918F912F910F900FBE0F901F90FE
:1008B00018958081F4CF1F920F920FB60F921124DA
:1008C0002F933F938F939F93AF93BF938091880112
:1008D00090918901A0918A01B0918B0130917101B1
:1008E00023E0230F2D3758F50196A11DB11D20934C
:1008F00071018093880190938901A0938A01B0933C
:100900008B018091720190917301A0917401B0915B
:1009100075010196A11DB11D809372019093730121
:10092000A0937401B0937501BF91AF919F918F9186
:100930003F912F910F900FBE0F901F90189526E8B2
:10094000230F0296A11DB11DD2CFECE8F1E0138276
:10095000128288EE93E0A0E0B0E084839583A683C2
:10096000B78388E191E09183808385EC90E095875F
:10097000848784EC90E09787868780EC90E0918B69
:10098000808B81EC90E0938B828B82EC90E0958B56
:10099000848B86EC90E0978B868B118E128E138E53
:1009A000148E0E943002E9E2F2E08AE0808380E85F
:1009B00096E9A8E9B0E081839283A383B4838AE0B7
:1009C0000E9487000C94FF01CF93DF93CDB7DEB771
:1009D000E5970FB6F894DEBF0FBECDBF789484B50F
:1009E000826084BD84B5816084BD85B5826085BD2B
:1009F00085B5816085BD80916E00816080936E00B9
:100A000010928100809181008260809381008091AA
:100A1000810081608093810080918000816080935B
:100A200080008091B10084608093B1008091B0001B
:100A300081608093B00080917A00846080937A0016
:100A400080917A00826080937A0080917A00816040
:100A500080937A0080917A00806880937A00109267
:100A6000C1000E943002E0919C01F0919D0182E062
:100A70008083E0919801F09199011082E0919A01B0
:100A8000F0919B0180E180831092A401E091A0018C
:100A9000F091A10186E08083E0919E01F0919F0199
:100AA000808180618083E0919E01F0919F0180812F
:100AB00088608083E0919E01F0919F018081806831
:100AC0008083E0919E01F0919F0180818F7D8083E2
:100AD00089E291E00E9470020E947E0280EC0E94F6
:100AE00029020E94FF010E9404024B015C013AE0CE
:100AF000C32ED12CE12CF12C0E9404026819790933
:100B00008A099B09683E734081059105A8F321E09D
:100B1000C21AD108E108F10888EE880E83E0981E19
:100B2000A11CB11CC114D104E104F10429F78E0108
:100B30000F5F1F4F8EE0F80111928A95E9F74EE0A2
:100B4000B80180E30E941E034EE0B80180E40E94D9
:100B50001E034EE0B80180E50E941E0360E080E6BF
:100B60000E940B0360E080E70E940B0363EA8BE2C4
:100B70000E940B0344E067E680E60E94A80241E081
:100B800067E680E70E94A8028CE0E0E0F1E0DE0189
:100B9000929601900D928A95E1F76E01F2E2CF0EE6
:100BA000D11CF12CE12C28E0B22EF601019111911B
:100BB0006F0180E80E94C102892B71F40230110597
:100BC00009F4C9C008F073C00115110509F4C9C0C2
:100BD0000130110509F477C080E80E94C102892B19
:100BE00061F460E08AE20E940B0360E989E20E94FE
:100BF0000B0362E888E20E940B0380E00E94C102BE
:100C000087E00E94870080E0E82E80E0F82E0E94B6
:100C10007E0280EA0E94290280E00E942902182FA9
:100C20000E94FF0190E080E010FD04C011FFA2C00F
:100C300081E090E00E946703892B09F09BC08091BE
:100C4000780190917901A0917A01B0917B018A3B62
:100C50009340A105B10509F08DC0809182018830D3
:100C600009F088C087E591E00E94630281E09091DD
:100C70008201983009F080E019A2805D88A3CE013E
:100C800080960E94630281E691E00E94700260E01B
:100C900087E00E94B301E114F10409F4B8CF0E9487
:100CA0001001882309F4B3CF0E940000B0CF0430B4
:100CB000110509F454C008F450C00530110509F0BD
:100CC0008BCF88E101C084E0F1E0EF16F10409F078
:100CD0004AC019AA18AABFA61EA644E0BE01625DBA
:100CE0007F4F0E941E032FEFE21AF20A86E0E816F9
:100CF000F10409F05ACF1BAA1AAA81E090E09DAB3B
:100D00008CAB8E010E5C1F4F6E0196E3C90ED11C99
:100D100098E0B92EF801E190F1908F0180E80E94EF
:100D2000C102892B09F058CF19AA18AABFA61EA67E
:100D3000E114F104E9F0EA94EF2809F04DCF84E2E0
:100D400044E0BE01625D7F4F0E941E030C151D052D
:100D500009F442CFDFCF88E0B7CF80E1B5CF84E19F
:100D6000B3CF80E0B1CF1EA61FA619AA18AAB5CF8F
:100D700080E2E6CF89E691E00E94700261E088CFD0
:100D8000EE0FFF1F0590F491E02D0994F894FFCF2A
:100D9000000001000200030004000500606166011C
:100DA00070717602000000004601A600D300930196
:100DB0000401E200F6000D0A0043414E2052656135
:100DC00064202D2054657374696E672072656365B5
:100DD000697074206F662043414E20427573206D08
:100DE00065737361676500476574616C20313A20F3
:100DF000004C4544204F4646004C4544204F4E0091
:00000001FF
